{
  "_format": "hh-sol-artifact-1",
  "contractName": "Identity",
  "sourceName": "contracts/token/Identity.sol",
  "abi": [
    {
      "inputs": [
        {
          "internalType": "string",
          "name": "uri_",
          "type": "string"
        }
      ],
      "stateMutability": "nonpayable",
      "type": "constructor"
    },
    {
      "anonymous": false,
      "inputs": [
        {
          "indexed": true,
          "internalType": "address",
          "name": "account",
          "type": "address"
        },
        {
          "indexed": true,
          "internalType": "address",
          "name": "operator",
          "type": "address"
        },
        {
          "indexed": false,
          "internalType": "bool",
          "name": "approved",
          "type": "bool"
        }
      ],
      "name": "ApprovalForAll",
      "type": "event"
    },
    {
      "anonymous": false,
      "inputs": [
        {
          "indexed": true,
          "internalType": "address",
          "name": "to",
          "type": "address"
        },
        {
          "indexed": false,
          "internalType": "bytes32",
          "name": "ID",
          "type": "bytes32"
        },
        {
          "indexed": false,
          "internalType": "address",
          "name": "nftAddress",
          "type": "address"
        }
      ],
      "name": "IdentityCreated",
      "type": "event"
    },
    {
      "anonymous": false,
      "inputs": [
        {
          "indexed": true,
          "internalType": "address",
          "name": "previousOwner",
          "type": "address"
        },
        {
          "indexed": true,
          "internalType": "address",
          "name": "newOwner",
          "type": "address"
        }
      ],
      "name": "OwnershipTransferred",
      "type": "event"
    },
    {
      "anonymous": false,
      "inputs": [
        {
          "indexed": true,
          "internalType": "address",
          "name": "operator",
          "type": "address"
        },
        {
          "indexed": true,
          "internalType": "address",
          "name": "from",
          "type": "address"
        },
        {
          "indexed": true,
          "internalType": "address",
          "name": "to",
          "type": "address"
        },
        {
          "indexed": false,
          "internalType": "uint256[]",
          "name": "ids",
          "type": "uint256[]"
        },
        {
          "indexed": false,
          "internalType": "uint256[]",
          "name": "values",
          "type": "uint256[]"
        }
      ],
      "name": "TransferBatch",
      "type": "event"
    },
    {
      "anonymous": false,
      "inputs": [
        {
          "indexed": true,
          "internalType": "address",
          "name": "operator",
          "type": "address"
        },
        {
          "indexed": true,
          "internalType": "address",
          "name": "from",
          "type": "address"
        },
        {
          "indexed": true,
          "internalType": "address",
          "name": "to",
          "type": "address"
        },
        {
          "indexed": false,
          "internalType": "uint256",
          "name": "id",
          "type": "uint256"
        },
        {
          "indexed": false,
          "internalType": "uint256",
          "name": "value",
          "type": "uint256"
        }
      ],
      "name": "TransferSingle",
      "type": "event"
    },
    {
      "anonymous": false,
      "inputs": [
        {
          "indexed": false,
          "internalType": "string",
          "name": "value",
          "type": "string"
        },
        {
          "indexed": true,
          "internalType": "uint256",
          "name": "id",
          "type": "uint256"
        }
      ],
      "name": "URI",
      "type": "event"
    },
    {
      "inputs": [],
      "name": "IDENTITY_PREFIX_ID",
      "outputs": [
        {
          "internalType": "bytes32",
          "name": "",
          "type": "bytes32"
        }
      ],
      "stateMutability": "view",
      "type": "function"
    },
    {
      "inputs": [
        {
          "internalType": "address",
          "name": "account",
          "type": "address"
        },
        {
          "internalType": "uint256",
          "name": "id",
          "type": "uint256"
        }
      ],
      "name": "balanceOf",
      "outputs": [
        {
          "internalType": "uint256",
          "name": "",
          "type": "uint256"
        }
      ],
      "stateMutability": "view",
      "type": "function"
    },
    {
      "inputs": [
        {
          "internalType": "address[]",
          "name": "accounts",
          "type": "address[]"
        },
        {
          "internalType": "uint256[]",
          "name": "ids",
          "type": "uint256[]"
        }
      ],
      "name": "balanceOfBatch",
      "outputs": [
        {
          "internalType": "uint256[]",
          "name": "",
          "type": "uint256[]"
        }
      ],
      "stateMutability": "view",
      "type": "function"
    },
    {
      "inputs": [],
      "name": "baseMetadataURI",
      "outputs": [
        {
          "internalType": "string",
          "name": "",
          "type": "string"
        }
      ],
      "stateMutability": "view",
      "type": "function"
    },
    {
      "inputs": [
        {
          "internalType": "bytes32",
          "name": "_bytes32",
          "type": "bytes32"
        }
      ],
      "name": "bytes32ToString",
      "outputs": [
        {
          "internalType": "string",
          "name": "",
          "type": "string"
        }
      ],
      "stateMutability": "pure",
      "type": "function"
    },
    {
      "inputs": [
        {
          "internalType": "address",
          "name": "_owner",
          "type": "address"
        },
        {
          "internalType": "bytes32",
          "name": "pwdHash",
          "type": "bytes32"
        },
        {
          "internalType": "bytes",
          "name": "data",
          "type": "bytes"
        }
      ],
      "name": "create",
      "outputs": [
        {
          "internalType": "uint256",
          "name": "__id",
          "type": "uint256"
        },
        {
          "internalType": "bool",
          "name": "success",
          "type": "bool"
        }
      ],
      "stateMutability": "nonpayable",
      "type": "function"
    },
    {
      "inputs": [
        {
          "internalType": "string",
          "name": "oldUsername",
          "type": "string"
        },
        {
          "internalType": "string",
          "name": "_username",
          "type": "string"
        }
      ],
      "name": "editUsername",
      "outputs": [
        {
          "internalType": "string",
          "name": "__username",
          "type": "string"
        },
        {
          "internalType": "bool",
          "name": "success",
          "type": "bool"
        }
      ],
      "stateMutability": "nonpayable",
      "type": "function"
    },
    {
      "inputs": [
        {
          "internalType": "address",
          "name": "_sender",
          "type": "address"
        }
      ],
      "name": "getID",
      "outputs": [
        {
          "internalType": "bytes32",
          "name": "ID",
          "type": "bytes32"
        }
      ],
      "stateMutability": "view",
      "type": "function"
    },
    {
      "inputs": [
        {
          "internalType": "uint256",
          "name": "tokenId",
          "type": "uint256"
        }
      ],
      "name": "getIDRole",
      "outputs": [
        {
          "internalType": "enum Identity.IdentityTypes",
          "name": "",
          "type": "uint8"
        }
      ],
      "stateMutability": "view",
      "type": "function"
    },
    {
      "inputs": [
        {
          "internalType": "address",
          "name": "_owner",
          "type": "address"
        }
      ],
      "name": "getUsername",
      "outputs": [
        {
          "internalType": "string",
          "name": "_username",
          "type": "string"
        },
        {
          "internalType": "bool",
          "name": "success",
          "type": "bool"
        }
      ],
      "stateMutability": "view",
      "type": "function"
    },
    {
      "inputs": [
        {
          "internalType": "uint256",
          "name": "tokenId",
          "type": "uint256"
        }
      ],
      "name": "getUsername",
      "outputs": [
        {
          "internalType": "string",
          "name": "_username",
          "type": "string"
        },
        {
          "internalType": "bool",
          "name": "success",
          "type": "bool"
        }
      ],
      "stateMutability": "view",
      "type": "function"
    },
    {
      "inputs": [
        {
          "internalType": "uint256",
          "name": "tokenId",
          "type": "uint256"
        }
      ],
      "name": "isAdmin",
      "outputs": [
        {
          "internalType": "bool",
          "name": "",
          "type": "bool"
        }
      ],
      "stateMutability": "view",
      "type": "function"
    },
    {
      "inputs": [
        {
          "internalType": "address",
          "name": "account",
          "type": "address"
        },
        {
          "internalType": "address",
          "name": "operator",
          "type": "address"
        }
      ],
      "name": "isApprovedForAll",
      "outputs": [
        {
          "internalType": "bool",
          "name": "",
          "type": "bool"
        }
      ],
      "stateMutability": "view",
      "type": "function"
    },
    {
      "inputs": [
        {
          "internalType": "uint256",
          "name": "tokenId",
          "type": "uint256"
        }
      ],
      "name": "isFounder",
      "outputs": [
        {
          "internalType": "bool",
          "name": "",
          "type": "bool"
        }
      ],
      "stateMutability": "view",
      "type": "function"
    },
    {
      "inputs": [
        {
          "internalType": "uint256",
          "name": "tokenId",
          "type": "uint256"
        }
      ],
      "name": "isModerator",
      "outputs": [
        {
          "internalType": "bool",
          "name": "",
          "type": "bool"
        }
      ],
      "stateMutability": "view",
      "type": "function"
    },
    {
      "inputs": [
        {
          "internalType": "uint256",
          "name": "tokenId",
          "type": "uint256"
        }
      ],
      "name": "isOwner",
      "outputs": [
        {
          "internalType": "bool",
          "name": "",
          "type": "bool"
        }
      ],
      "stateMutability": "view",
      "type": "function"
    },
    {
      "inputs": [
        {
          "internalType": "uint256",
          "name": "tokenId",
          "type": "uint256"
        }
      ],
      "name": "isUser",
      "outputs": [
        {
          "internalType": "bool",
          "name": "",
          "type": "bool"
        }
      ],
      "stateMutability": "view",
      "type": "function"
    },
    {
      "inputs": [],
      "name": "name",
      "outputs": [
        {
          "internalType": "string",
          "name": "",
          "type": "string"
        }
      ],
      "stateMutability": "view",
      "type": "function"
    },
    {
      "inputs": [],
      "name": "owner",
      "outputs": [
        {
          "internalType": "address",
          "name": "",
          "type": "address"
        }
      ],
      "stateMutability": "view",
      "type": "function"
    },
    {
      "inputs": [],
      "name": "renounceOwnership",
      "outputs": [],
      "stateMutability": "nonpayable",
      "type": "function"
    },
    {
      "inputs": [
        {
          "internalType": "address",
          "name": "from",
          "type": "address"
        },
        {
          "internalType": "address",
          "name": "to",
          "type": "address"
        },
        {
          "internalType": "uint256[]",
          "name": "ids",
          "type": "uint256[]"
        },
        {
          "internalType": "uint256[]",
          "name": "amounts",
          "type": "uint256[]"
        },
        {
          "internalType": "bytes",
          "name": "data",
          "type": "bytes"
        }
      ],
      "name": "safeBatchTransferFrom",
      "outputs": [],
      "stateMutability": "nonpayable",
      "type": "function"
    },
    {
      "inputs": [
        {
          "internalType": "address",
          "name": "from",
          "type": "address"
        },
        {
          "internalType": "address",
          "name": "to",
          "type": "address"
        },
        {
          "internalType": "uint256",
          "name": "id",
          "type": "uint256"
        },
        {
          "internalType": "uint256",
          "name": "amount",
          "type": "uint256"
        },
        {
          "internalType": "bytes",
          "name": "data",
          "type": "bytes"
        }
      ],
      "name": "safeTransferFrom",
      "outputs": [],
      "stateMutability": "nonpayable",
      "type": "function"
    },
    {
      "inputs": [
        {
          "internalType": "address",
          "name": "operator",
          "type": "address"
        },
        {
          "internalType": "bool",
          "name": "approved",
          "type": "bool"
        }
      ],
      "name": "setApprovalForAll",
      "outputs": [],
      "stateMutability": "nonpayable",
      "type": "function"
    },
    {
      "inputs": [
        {
          "internalType": "string",
          "name": "_newBaseMetadataURI",
          "type": "string"
        }
      ],
      "name": "setBaseMetadataURI",
      "outputs": [],
      "stateMutability": "nonpayable",
      "type": "function"
    },
    {
      "inputs": [
        {
          "internalType": "address",
          "name": "_owner",
          "type": "address"
        },
        {
          "internalType": "string",
          "name": "_username",
          "type": "string"
        }
      ],
      "name": "setUsername",
      "outputs": [
        {
          "internalType": "string",
          "name": "__username",
          "type": "string"
        },
        {
          "internalType": "bool",
          "name": "success",
          "type": "bool"
        }
      ],
      "stateMutability": "nonpayable",
      "type": "function"
    },
    {
      "inputs": [
        {
          "internalType": "bytes4",
          "name": "interfaceId",
          "type": "bytes4"
        }
      ],
      "name": "supportsInterface",
      "outputs": [
        {
          "internalType": "bool",
          "name": "",
          "type": "bool"
        }
      ],
      "stateMutability": "view",
      "type": "function"
    },
    {
      "inputs": [],
      "name": "symbol",
      "outputs": [
        {
          "internalType": "string",
          "name": "",
          "type": "string"
        }
      ],
      "stateMutability": "view",
      "type": "function"
    },
    {
      "inputs": [
        {
          "internalType": "bytes32",
          "name": "ID",
          "type": "bytes32"
        }
      ],
      "name": "tokenURI",
      "outputs": [
        {
          "internalType": "string",
          "name": "",
          "type": "string"
        }
      ],
      "stateMutability": "view",
      "type": "function"
    },
    {
      "inputs": [
        {
          "internalType": "uint256",
          "name": "idType",
          "type": "uint256"
        }
      ],
      "name": "totalIdentities",
      "outputs": [
        {
          "internalType": "uint256",
          "name": "",
          "type": "uint256"
        }
      ],
      "stateMutability": "view",
      "type": "function"
    },
    {
      "inputs": [
        {
          "internalType": "address",
          "name": "newOwner",
          "type": "address"
        }
      ],
      "name": "transferOwnership",
      "outputs": [],
      "stateMutability": "nonpayable",
      "type": "function"
    },
    {
      "inputs": [
        {
          "internalType": "uint256",
          "name": "tokenId",
          "type": "uint256"
        }
      ],
      "name": "uri",
      "outputs": [
        {
          "internalType": "string",
          "name": "",
          "type": "string"
        }
      ],
      "stateMutability": "view",
      "type": "function"
    },
    {
      "inputs": [
        {
          "internalType": "address",
          "name": "_owner",
          "type": "address"
        },
        {
          "internalType": "bytes32",
          "name": "pwdHash",
          "type": "bytes32"
        }
      ],
      "name": "useIdentity",
      "outputs": [
        {
          "internalType": "bytes32",
          "name": "",
          "type": "bytes32"
        }
      ],
      "stateMutability": "view",
      "type": "function"
    }
  ],
  "bytecode": "0x60c0604052601460809081527f414b58204944454e54495459205345525649434500000000000000000000000060a0526011906200003e908262000256565b506040805180820190915260068152651052d60b925160d21b60208201526012906200006b908262000256565b503480156200007957600080fd5b50604051620032b9380380620032b98339810160408190526200009c9162000322565b80620000a881620000c6565b50620000b433620000d8565b620000bf816200012a565b50620003f7565b6002620000d4828262000256565b5050565b600380546001600160a01b038381166001600160a01b0319831681179093556040519116919082907f8be0079c531659141344cd1fd0a4f28419497f9722a3daafe3b4186f6b6457e090600090a35050565b6200013462000142565b6200013f81620001a3565b50565b6003546001600160a01b03163314620001a15760405162461bcd60e51b815260206004820181905260248201527f4f776e61626c653a2063616c6c6572206973206e6f7420746865206f776e6572604482015260640160405180910390fd5b565b6013620000d4828262000256565b634e487b7160e01b600052604160045260246000fd5b600181811c90821680620001dc57607f821691505b602082108103620001fd57634e487b7160e01b600052602260045260246000fd5b50919050565b601f8211156200025157600081815260208120601f850160051c810160208610156200022c5750805b601f850160051c820191505b818110156200024d5782815560010162000238565b5050505b505050565b81516001600160401b03811115620002725762000272620001b1565b6200028a81620002838454620001c7565b8462000203565b602080601f831160018114620002c25760008415620002a95750858301515b600019600386901b1c1916600185901b1785556200024d565b600085815260208120601f198616915b82811015620002f357888601518255948401946001909101908401620002d2565b5085821015620003125787850151600019600388901b60f8161c191681555b5050505050600190811b01905550565b600060208083850312156200033657600080fd5b82516001600160401b03808211156200034e57600080fd5b818501915085601f8301126200036357600080fd5b815181811115620003785762000378620001b1565b604051601f8201601f19908116603f01168101908382118183101715620003a357620003a3620001b1565b816040528281528886848701011115620003bc57600080fd5b600093505b82841015620003e05784840186015181850187015292850192620003c1565b600086848301015280965050505050505092915050565b612eb280620004076000396000f3fe608060405234801561001057600080fd5b50600436106101ef5760003560e01c80638aae0c2b1161010f578063afbb8d51116100a2578063eb23ad9311610071578063eb23ad93146104a6578063f18d18cc146104d6578063f242432a146104e9578063f2fde38b146104fc57600080fd5b8063afbb8d5114610431578063ce43c03214610444578063e204545214610457578063e985e9c51461046a57600080fd5b806399f826a5116100de57806399f826a5146103c2578063a22cb465146103f8578063a303cf8e1461040b578063a8bf24a01461041e57600080fd5b80638aae0c2b146103795780638da5cb5b1461038c5780639201de55146103a757806395d89b41146103ba57600080fd5b806339c7639c1161018757806369eb6ee81161015657806369eb6ee814610316578063715018a61461033d5780637dca60fc146103455780637e518ec81461036657600080fd5b806339c7639c146102b35780633fca28f2146102c65780634e1273f4146102ee5780635b2bd79e1461030e57600080fd5b806318a9cc1b116101c357806318a9cc1b146102655780631f6dc437146102785780632eb2c2d61461028b578063388a41e5146102a057600080fd5b8062fdd58e146101f457806301ffc9a71461021a57806306fdde031461023d5780630e89341c14610252575b600080fd5b6102076102023660046122a2565b61050f565b6040519081526020015b60405180910390f35b61022d6102283660046122e2565b6105bb565b6040519015158152602001610211565b61024561060b565b604051610211919061234f565b610245610260366004612362565b610699565b61022d610273366004612362565b6106b4565b61022d610286366004612362565b6106ef565b61029e6102993660046124c7565b610724565b005b6102076102ae366004612362565b6107b8565b61022d6102c1366004612362565b61080d565b6102d96102d4366004612571565b610816565b60408051928352901515602083015201610211565b6103016102fc3660046125c8565b610a24565b60405161021191906126ce565b610245610b62565b6102077ff0ed00894e1cc7f0a9e52170db38a1062b5148c1176b6904e16f5d3e57bbcd2f81565b61029e610b6f565b6103586103533660046126e1565b610b83565b60405161021192919061273b565b61029e61037436600461275f565b610e5f565b61022d610387366004612362565b610e73565b6003546040516001600160a01b039091168152602001610211565b6102456103b5366004612362565b610e7c565b610245610fe3565b6102076103d0366004612794565b6001600160a01b03166000908152600a60209081526040808320548352600690915290205490565b61029e6104063660046127af565b610ff0565b61022d610419366004612362565b610fff565b61020761042c3660046122a2565b611008565b61024561043f366004612362565b6110fb565b610358610452366004612794565b611154565b6103586104653660046127eb565b6112b4565b61022d61047836600461282f565b6001600160a01b03918216600090815260016020908152604080832093909416825291909152205460ff1690565b6104c96104b4366004612362565b60009081526009602052604090205460ff1690565b6040516102119190612878565b6103586104e4366004612362565b611498565b61029e6104f73660046128a0565b6115cb565b61029e61050a366004612794565b611658565b60006001600160a01b0383166105925760405162461bcd60e51b815260206004820152602a60248201527f455243313135353a2061646472657373207a65726f206973206e6f742061207660448201527f616c6964206f776e65720000000000000000000000000000000000000000000060648201526084015b60405180910390fd5b506000818152602081815260408083206001600160a01b03861684529091529020545b92915050565b60006001600160e01b03198216636cdb3d1360e11b14806105ec57506001600160e01b031982166303a24d0760e21b145b806105b557506301ffc9a760e01b6001600160e01b03198316146105b5565b6011805461061890612905565b80601f016020809104026020016040519081016040528092919081815260200182805461064490612905565b80156106915780601f1061066657610100808354040283529160200191610691565b820191906000526020600020905b81548152906001019060200180831161067457829003601f168201915b505050505081565b6000818152600660205260409020546060906105b5906110fb565b60008060008381526009602052604090205460ff1660058111156106da576106da612862565b036106e757506000919050565b506001919050565b600060045b60008381526009602052604090205460ff16600581111561071757610717612862565b146106e757506000919050565b6001600160a01b03851633148061074057506107408533610478565b6107a45760405162461bcd60e51b815260206004820152602f60248201527f455243313135353a2063616c6c6572206973206e6f7420746f6b656e206f776e60448201526e195c881b9bdc88185c1c1c9bdd9959608a1b6064820152608401610589565b6107b185858585856116ce565b5050505050565b6000808260058111156107cd576107cd612862565b9050600760008260058111156107e5576107e5612862565b60058111156107f6576107f6612862565b815260200190815260200160002054915050919050565b600060056106f4565b600080610821611941565b6001600160a01b0385166000908152600b602052604090205460ff16151560010361088e5760405162461bcd60e51b815260206004820152601860248201527f616c7265616479206861766520616e206964656e7469747900000000000000006044820152606401610589565b600061089960105490565b90506108a9601080546001019055565b6001600160a01b0386166000908152600b60205260408120805460ff191660019081179091556108db9083908861199b565b90506108ea8783600188611a42565b6000828152600660209081526040808320849055838352600582528220849055600180835260079091527fb39221ace053465ec3453ce2b36430bd138b997ecea25c1043da0c366812b828805491929091610946908490612955565b91829055507fb39221ace053465ec3453ce2b36430bd138b997ecea25c1043da0c366812b828555060008281526004602090815260408083208054600160ff19918216811790925560098452828520805490911690911790556001600160a01b038a16808452600a8352818420869055858452600f835292819020805473ffffffffffffffffffffffffffffffffffffffff1916841790558051848152309281019290925280517f8fcf185a48b60de166426dd37802ad7857beecbd1dc67b6eb462a5089a59bbe59281900390910190a25095600195509350505050565b60608151835114610a9d5760405162461bcd60e51b815260206004820152602960248201527f455243313135353a206163636f756e747320616e6420696473206c656e67746860448201527f206d69736d6174636800000000000000000000000000000000000000000000006064820152608401610589565b6000835167ffffffffffffffff811115610ab957610ab961237b565b604051908082528060200260200182016040528015610ae2578160200160208202803683370190505b50905060005b8451811015610b5a57610b2d858281518110610b0657610b06612968565b6020026020010151858381518110610b2057610b20612968565b602002602001015161050f565b828281518110610b3f57610b3f612968565b6020908102919091010152610b538161297e565b9050610ae8565b509392505050565b6013805461061890612905565b610b77611941565b610b816000611b56565b565b336000908152600d60205260408120546060919060ff16610be65760405162461bcd60e51b815260206004820152601660248201527f646f206e6f742068617665206120757365726e616d65000000000000000000006044820152606401610589565b336000908152600c602090815260408083209051610c049201612997565b60405160208183030381529060405280519060200120905084604051602001610c2d919061234f565b6040516020818303038152906040528051906020012081148015610c9d575083604051602001610c5d919061234f565b6040516020818303038152906040528051906020012085604051602001610c84919061234f565b6040516020818303038152906040528051906020012014155b610ce95760405162461bcd60e51b815260206004820152601060248201527f696e76616c696420757365726e616d65000000000000000000000000000000006044820152606401610589565b336000908152600a602052604090819020549051600890610d0b908890612a22565b90815260200160405180910390205414610d675760405162461bcd60e51b815260206004820152601060248201527f646f206e6f74206f776e20746f6b656e000000000000000000000000000000006044820152606401610589565b600e84604051610d779190612a22565b9081526040519081900360200190205460ff1615610dd75760405162461bcd60e51b815260206004820152601760248201527f757365726e616d6520616c7265616479206578697374730000000000000000006044820152606401610589565b6001600e85604051610de99190612a22565b9081526040805160209281900383018120805460ff191694151594909417909355336000908152600a90925290205490600890610e27908790612a22565b908152604080516020928190038301902092909255336000908152600c90915220610e528582612a89565b5092946001945092505050565b610e67611941565b610e7081611bb5565b50565b600060036106f4565b606060005b60208160ff16108015610ecd5750828160ff1660208110610ea457610ea4612968565b1a60f81b7fff000000000000000000000000000000000000000000000000000000000000001615155b15610ee45780610edc81612b49565b915050610e81565b60008160ff1667ffffffffffffffff811115610f0257610f0261237b565b6040519080825280601f01601f191660200182016040528015610f2c576020820181803683370190505b509050600091505b60208260ff16108015610f805750838260ff1660208110610f5757610f57612968565b1a60f81b7fff000000000000000000000000000000000000000000000000000000000000001615155b15610fdc57838260ff1660208110610f9a57610f9a612968565b1a60f81b818360ff1681518110610fb357610fb3612968565b60200101906001600160f81b031916908160001a90535081610fd481612b49565b925050610f34565b9392505050565b6012805461061890612905565b610ffb338383611bc1565b5050565b600060026106f4565b6001600160a01b0382166000908152600b602052604081205460ff1615156001146110755760405162461bcd60e51b815260206004820152601860248201527f696e76616c6964206964656e74697479207265717565737400000000000000006044820152606401610589565b6001600160a01b0383166000908152600a60209081526040808320548084526006909252909120546110a78185611cb5565b6110f35760405162461bcd60e51b815260206004820152600a60248201527f494e56414c49445f4944000000000000000000000000000000000000000000006044820152606401610589565b949350505050565b6060600061110883611cee565b6000848152600560205260408120549192509061112490611cee565b90506013828260405160200161113c93929190612b68565b60405160208183030381529060405292505050919050565b606060006001600160a01b0383166111a05760405162461bcd60e51b815260206004820152600f60248201526e6e6f207a65726f206164647265737360881b6044820152606401610589565b6001600160a01b0383166000908152600d602052604090205460ff166112085760405162461bcd60e51b815260206004820152601660248201527f646f206e6f742068617665206120757365726e616d65000000000000000000006044820152606401610589565b6001600160a01b0383166000908152600c60205260409020805461122b90612905565b80601f016020809104026020016040519081016040528092919081815260200182805461125790612905565b80156112a45780601f10611279576101008083540402835291602001916112a4565b820191906000526020600020905b81548152906001019060200180831161128757829003601f168201915b5050505050915060019050915091565b606060006001600160a01b0384166113005760405162461bcd60e51b815260206004820152600f60248201526e6e6f207a65726f206164647265737360881b6044820152606401610589565b6001600160a01b0384166000908152600d602052604090205460ff16156113695760405162461bcd60e51b815260206004820152601760248201527f616c72656164792068617665206120757365726e616d650000000000000000006044820152606401610589565b600e836040516113799190612a22565b9081526040519081900360200190205460ff16156113d95760405162461bcd60e51b815260206004820152601760248201527f757365726e616d6520616c7265616479206578697374730000000000000000006044820152606401610589565b6001600160a01b0384166000908152600d602052604090819020805460ff191660019081179091559051600e90611411908690612a22565b9081526040805160209281900383018120805460ff1916941515949094179093556001600160a01b0387166000908152600a90925290205490600890611458908690612a22565b9081526040805160209281900383019020929092556001600160a01b0386166000908152600c9091522061148c8482612a89565b50919360019350915050565b6000818152600f60209081526040808320546001600160a01b0316808452600d909252822054606092919060ff166115125760405162461bcd60e51b815260206004820152601660248201527f646f206e6f742068617665206120757365726e616d65000000000000000000006044820152606401610589565b6000848152600f60209081526040808320546001600160a01b03168352600c9091529020805461154190612905565b80601f016020809104026020016040519081016040528092919081815260200182805461156d90612905565b80156115ba5780601f1061158f576101008083540402835291602001916115ba565b820191906000526020600020905b81548152906001019060200180831161159d57829003601f168201915b505050505092506001915050915091565b6001600160a01b0385163314806115e757506115e78533610478565b61164b5760405162461bcd60e51b815260206004820152602f60248201527f455243313135353a2063616c6c6572206973206e6f7420746f6b656e206f776e60448201526e195c881b9bdc88185c1c1c9bdd9959608a1b6064820152608401610589565b6107b18585858585611def565b611660611941565b6001600160a01b0381166116c55760405162461bcd60e51b815260206004820152602660248201527f4f776e61626c653a206e6577206f776e657220697320746865207a65726f206160448201526564647265737360d01b6064820152608401610589565b610e7081611b56565b81518351146117455760405162461bcd60e51b815260206004820152602860248201527f455243313135353a2069647320616e6420616d6f756e7473206c656e6774682060448201527f6d69736d617463680000000000000000000000000000000000000000000000006064820152608401610589565b6001600160a01b0384166117a95760405162461bcd60e51b815260206004820152602560248201527f455243313135353a207472616e7366657220746f20746865207a65726f206164604482015264647265737360d81b6064820152608401610589565b3360005b84518110156118d35760008582815181106117ca576117ca612968565b6020026020010151905060008583815181106117e8576117e8612968565b602090810291909101810151600084815280835260408082206001600160a01b038e16835290935291909120549091508181101561187b5760405162461bcd60e51b815260206004820152602a60248201527f455243313135353a20696e73756666696369656e742062616c616e636520666f60448201526939103a3930b739b332b960b11b6064820152608401610589565b6000838152602081815260408083206001600160a01b038e8116855292528083208585039055908b168252812080548492906118b8908490612955565b92505081905550505050806118cc9061297e565b90506117ad565b50846001600160a01b0316866001600160a01b0316826001600160a01b03167f4a39dc06d4c0dbc64b70af90fd698a233a518aa5d07e595d983b8c0526c8f7fb8787604051611923929190612c03565b60405180910390a4611939818787878787611f9a565b505050505050565b6003546001600160a01b03163314610b815760405162461bcd60e51b815260206004820181905260248201527f4f776e61626c653a2063616c6c6572206973206e6f7420746865206f776e65726044820152606401610589565b60008084846040516020016119b1929190612c31565b6040516020818303038152906040529050600081846040516020016119d7929190612c68565b604051602081830303815290604052905060007ff0ed00894e1cc7f0a9e52170db38a1062b5148c1176b6904e16f5d3e57bbcd2f8383604051602001611a1f93929190612c8a565b60408051808303601f190181529190528051602090910120979650505050505050565b6001600160a01b038416611aa25760405162461bcd60e51b815260206004820152602160248201527f455243313135353a206d696e7420746f20746865207a65726f206164647265736044820152607360f81b6064820152608401610589565b336000611aae8561213f565b90506000611abb8561213f565b90506000868152602081815260408083206001600160a01b038b16845290915281208054879290611aed908490612955565b909155505060408051878152602081018790526001600160a01b03808a1692600092918716917fc3d58168c5ae7397731d063d5bbf3d657854427343f4c083240f7aacaa2d0f62910160405180910390a4611b4d8360008989898961218a565b50505050505050565b600380546001600160a01b0383811673ffffffffffffffffffffffffffffffffffffffff19831681179093556040519116919082907f8be0079c531659141344cd1fd0a4f28419497f9722a3daafe3b4186f6b6457e090600090a35050565b6013610ffb8282612a89565b816001600160a01b0316836001600160a01b031603611c485760405162461bcd60e51b815260206004820152602960248201527f455243313135353a2073657474696e6720617070726f76616c2073746174757360448201527f20666f722073656c6600000000000000000000000000000000000000000000006064820152608401610589565b6001600160a01b03838116600081815260016020908152604080832094871680845294825291829020805460ff191686151590811790915591519182527f17307eab39ab6107e8899845ad3d59bd9653f200f220920489ca2b5937696c31910160405180910390a3505050565b60008281526005602090815260408083205480845260099092528220548290611ce390839060ff168661199b565b909414949350505050565b606081600003611d155750506040805180820190915260018152600360fc1b602082015290565b8160005b8115611d3f5780611d298161297e565b9150611d389050600a83612cdd565b9150611d19565b60008167ffffffffffffffff811115611d5a57611d5a61237b565b6040519080825280601f01601f191660200182016040528015611d84576020820181803683370190505b5090505b84156110f357611d99600183612cf1565b9150611da6600a86612d04565b611db1906030612955565b60f81b818381518110611dc657611dc6612968565b60200101906001600160f81b031916908160001a905350611de8600a86612cdd565b9450611d88565b6001600160a01b038416611e535760405162461bcd60e51b815260206004820152602560248201527f455243313135353a207472616e7366657220746f20746865207a65726f206164604482015264647265737360d81b6064820152608401610589565b336000611e5f8561213f565b90506000611e6c8561213f565b90506000868152602081815260408083206001600160a01b038c16845290915290205485811015611ef25760405162461bcd60e51b815260206004820152602a60248201527f455243313135353a20696e73756666696369656e742062616c616e636520666f60448201526939103a3930b739b332b960b11b6064820152608401610589565b6000878152602081815260408083206001600160a01b038d8116855292528083208985039055908a16825281208054889290611f2f908490612955565b909155505060408051888152602081018890526001600160a01b03808b16928c821692918816917fc3d58168c5ae7397731d063d5bbf3d657854427343f4c083240f7aacaa2d0f62910160405180910390a4611f8f848a8a8a8a8a61218a565b505050505050505050565b6001600160a01b0384163b156119395760405163bc197c8160e01b81526001600160a01b0385169063bc197c8190611fde9089908990889088908890600401612d18565b6020604051808303816000875af1925050508015612019575060408051601f3d908101601f1916820190925261201691810190612d76565b60015b6120ce57612025612d93565b806308c379a00361205e5750612039612daf565b806120445750612060565b8060405162461bcd60e51b8152600401610589919061234f565b505b60405162461bcd60e51b815260206004820152603460248201527f455243313135353a207472616e7366657220746f206e6f6e204552433131353560448201527f526563656976657220696d706c656d656e7465720000000000000000000000006064820152608401610589565b6001600160e01b0319811663bc197c8160e01b14611b4d5760405162461bcd60e51b815260206004820152602860248201527f455243313135353a204552433131353552656365697665722072656a656374656044820152676420746f6b656e7360c01b6064820152608401610589565b6040805160018082528183019092526060916000919060208083019080368337019050509050828160008151811061217957612179612968565b602090810291909101015292915050565b6001600160a01b0384163b156119395760405163f23a6e6160e01b81526001600160a01b0385169063f23a6e61906121ce9089908990889088908890600401612e39565b6020604051808303816000875af1925050508015612209575060408051601f3d908101601f1916820190925261220691810190612d76565b60015b61221557612025612d93565b6001600160e01b0319811663f23a6e6160e01b14611b4d5760405162461bcd60e51b815260206004820152602860248201527f455243313135353a204552433131353552656365697665722072656a656374656044820152676420746f6b656e7360c01b6064820152608401610589565b80356001600160a01b038116811461229d57600080fd5b919050565b600080604083850312156122b557600080fd5b6122be83612286565b946020939093013593505050565b6001600160e01b031981168114610e7057600080fd5b6000602082840312156122f457600080fd5b8135610fdc816122cc565b60005b8381101561231a578181015183820152602001612302565b50506000910152565b6000815180845261233b8160208601602086016122ff565b601f01601f19169290920160200192915050565b602081526000610fdc6020830184612323565b60006020828403121561237457600080fd5b5035919050565b634e487b7160e01b600052604160045260246000fd5b601f8201601f1916810167ffffffffffffffff811182821017156123b7576123b761237b565b6040525050565b600067ffffffffffffffff8211156123d8576123d861237b565b5060051b60200190565b600082601f8301126123f357600080fd5b81356020612400826123be565b60405161240d8282612391565b83815260059390931b850182019282810191508684111561242d57600080fd5b8286015b848110156124485780358352918301918301612431565b509695505050505050565b600082601f83011261246457600080fd5b813567ffffffffffffffff81111561247e5761247e61237b565b604051612495601f8301601f191660200182612391565b8181528460208386010111156124aa57600080fd5b816020850160208301376000918101602001919091529392505050565b600080600080600060a086880312156124df57600080fd5b6124e886612286565b94506124f660208701612286565b9350604086013567ffffffffffffffff8082111561251357600080fd5b61251f89838a016123e2565b9450606088013591508082111561253557600080fd5b61254189838a016123e2565b9350608088013591508082111561255757600080fd5b5061256488828901612453565b9150509295509295909350565b60008060006060848603121561258657600080fd5b61258f84612286565b925060208401359150604084013567ffffffffffffffff8111156125b257600080fd5b6125be86828701612453565b9150509250925092565b600080604083850312156125db57600080fd5b823567ffffffffffffffff808211156125f357600080fd5b818501915085601f83011261260757600080fd5b81356020612614826123be565b6040516126218282612391565b83815260059390931b850182019282810191508984111561264157600080fd5b948201945b838610156126665761265786612286565b82529482019490820190612646565b9650508601359250508082111561267c57600080fd5b50612689858286016123e2565b9150509250929050565b600081518084526020808501945080840160005b838110156126c3578151875295820195908201906001016126a7565b509495945050505050565b602081526000610fdc6020830184612693565b600080604083850312156126f457600080fd5b823567ffffffffffffffff8082111561270c57600080fd5b61271886838701612453565b9350602085013591508082111561272e57600080fd5b5061268985828601612453565b60408152600061274e6040830185612323565b905082151560208301529392505050565b60006020828403121561277157600080fd5b813567ffffffffffffffff81111561278857600080fd5b6110f384828501612453565b6000602082840312156127a657600080fd5b610fdc82612286565b600080604083850312156127c257600080fd5b6127cb83612286565b9150602083013580151581146127e057600080fd5b809150509250929050565b600080604083850312156127fe57600080fd5b61280783612286565b9150602083013567ffffffffffffffff81111561282357600080fd5b61268985828601612453565b6000806040838503121561284257600080fd5b61284b83612286565b915061285960208401612286565b90509250929050565b634e487b7160e01b600052602160045260246000fd5b602081016006831061289a57634e487b7160e01b600052602160045260246000fd5b91905290565b600080600080600060a086880312156128b857600080fd5b6128c186612286565b94506128cf60208701612286565b93506040860135925060608601359150608086013567ffffffffffffffff8111156128f957600080fd5b61256488828901612453565b600181811c9082168061291957607f821691505b60208210810361293957634e487b7160e01b600052602260045260246000fd5b50919050565b634e487b7160e01b600052601160045260246000fd5b808201808211156105b5576105b561293f565b634e487b7160e01b600052603260045260246000fd5b6000600182016129905761299061293f565b5060010190565b60006020808352600084546129ab81612905565b808487015260406001808416600081146129cc57600181146129e657612a14565b60ff1985168984015283151560051b890183019550612a14565b896000528660002060005b85811015612a0c5781548b82018601529083019088016129f1565b8a0184019650505b509398975050505050505050565b60008251612a348184602087016122ff565b9190910192915050565b601f821115612a8457600081815260208120601f850160051c81016020861015612a655750805b601f850160051c820191505b8181101561193957828155600101612a71565b505050565b815167ffffffffffffffff811115612aa357612aa361237b565b612ab781612ab18454612905565b84612a3e565b602080601f831160018114612aec5760008415612ad45750858301515b600019600386901b1c1916600185901b178555611939565b600085815260208120601f198616915b82811015612b1b57888601518255948401946001909101908401612afc565b5085821015612b395787850151600019600388901b60f8161c191681555b5050505050600190811b01905550565b600060ff821660ff8103612b5f57612b5f61293f565b60010192915050565b6000808554612b7681612905565b60018281168015612b8e5760018114612ba357612bd2565b60ff1984168752821515830287019450612bd2565b8960005260208060002060005b85811015612bc95781548a820152908401908201612bb0565b50505082870194505b505050508451612be68183602089016122ff565b8451910190612bf98183602088016122ff565b0195945050505050565b604081526000612c166040830185612693565b8281036020840152612c288185612693565b95945050505050565b828152600060068310612c5457634e487b7160e01b600052602160045260246000fd5b5060f89190911b6020820152602101919050565b60008351612c7a8184602088016122ff565b9190910191825250602001919050565b83815260008351612ca28160208501602088016122ff565b80830190508351612cba8160208401602088016122ff565b0160200195945050505050565b634e487b7160e01b600052601260045260246000fd5b600082612cec57612cec612cc7565b500490565b818103818111156105b5576105b561293f565b600082612d1357612d13612cc7565b500690565b60006001600160a01b03808816835280871660208401525060a06040830152612d4460a0830186612693565b8281036060840152612d568186612693565b90508281036080840152612d6a8185612323565b98975050505050505050565b600060208284031215612d8857600080fd5b8151610fdc816122cc565b600060033d1115612dac5760046000803e5060005160e01c5b90565b600060443d1015612dbd5790565b6040516003193d81016004833e81513d67ffffffffffffffff8160248401118184111715612ded57505050505090565b8285019150815181811115612e055750505050505090565b843d8701016020828501011115612e1f5750505050505090565b612e2e60208286010187612391565b509095945050505050565b60006001600160a01b03808816835280871660208401525084604083015283606083015260a06080830152612e7160a0830184612323565b97965050505050505056fea2646970667358221220bdd703af893bbac73a4ea8047b2b95f22912c4a5612ec5a148684115b65cacb764736f6c63430008110033",
  "linkReferences": {},
  "deployedLinkReferences": {}
}